:060000000A128A1110280B
:10000800FE00030EF5000408F6000A08F7007F0852
:10001800F8000A128A110A290A128A1113280A12E8
:100028008A11A7220A128A11A800A601A701F901BC
:10003800FA01FB0183010A128A11BA2800308A00EA
:100048000408840A820700342D342D342D342D34CD
:100058002D342D342D342D342D342D342D342D3490
:100068002D342D342D342D344D34613469346E34AF
:1000780020344D3465346E3475342D342D342D349C
:100088002D342D342D342D342D342D342D342D3460
:100098002D342D342D342D342D342D342D342D3450
:1000A80000346134293420344C3465346334743476
:1000B8007534723461342034643465346C342034DB
:1000C80070346F34743465346E34633469346F3427
:1000D8006D346534743472346F342E3400344934DA
:1000E8006E34673472346534733465342034633461
:1000F8006134723461346334743465347234203456
:1001080065346E34203441345334433449344934EB
:100118003A3420340034563461346C346F347234D9
:100128002034643465346C34203470346F3474345F
:1001380065346E34633469346F346D3465347434C3
:1001480072346F343A342034003462342934203421
:1001580045346E3476346934613472342034413431
:1001680053344334493449342E3400340A128A1142
:1001780059210A128A110A128A11A6210A128A1111
:10018800831203139F18C928CA28CB289F146130EB
:100198002606031DD028D128F328A60168300A12A4
:1001A8008A1165220A128A11A33083120313A5004B
:1001B8005430A400A40BDE28A50BDE28000083120F
:1001C800031327089900A33083120313A5005430A2
:1001D800A400A40BED28A50BED280000BF28623071
:1001E8002606031DF828F928C4280130F900003034
:1001F800FA004C300A128A1165220A128A118312F7
:100208000313A601C4280A128A11102883120313A3
:100218000C1F0F2910291E291F0CF400740C0F390C
:10022800003A031D182919291D291E08F40074080D
:10023800A7000C138C1E212922294E2979087A043B
:10024800031D272928292E291A08F4007408A60056
:100258009A014E2979037A04031D332934294E293A
:10026800F901FA011A08F4007408FB007B089900E8
:100278007B0886009A010130F0000030F1000A1274
:100288008A1143220A128A110A128A11E5210A12D6
:100298008A114E297808FF0077088A0076088400BA
:1002A800750E8300FE0E7E0E0900013083160317BB
:1002B80088008901013083160313850086018312A3
:1002C8000313850186018B170B170C138316031371
:1002D8000C170F088F3940388F000F14831203133F
:1002E8001F083F3940389F00831603131F129F12BF
:1002F800C330831203139F05831603139F138312BE
:1003080003131F14023083120313A000A00B8A29C1
:100318000000831603131812181583160317871580
:10032800831603139A01193099008312031398173F
:1003380083160313981683120313181683160313D0
:100348008C160800023083120313A0000030A100AD
:100358000A128A111C220A128A1101300A128A1101
:1003680065220A128A11013083120313A00000309B
:10037800A1000A128A111C220A128A112E300A12AE
:100388008A1165220A128A11013083120313A00010
:100398000030A1000A128A111C220A128A11823026
:1003A8000A128A1165220A128A1102308312031373
:1003B800A0000030A1000A128A111C220A128A1118
:1003C80008000230F0000030F1000A128A114322BE
:1003D8000A128A1101300A128A1186220A128A1117
:1003E8000130F0000030F1000A128A1143220A128B
:1003F8008A112E300A128A1186220A128A110130B5
:10040800F0000030F1000A128A1143220A128A1100
:1004180082300A128A1186220A128A110230F000EA
:100428000030F1000A128A1143220A128A110800C8
:10043800332AFF3083120313A0070318A10AFF30E1
:10044800A1070D3083120313A300FB30A200A20BF7
:100458002B2AA30B2B2A8312031328089900831233
:1004680003132108803AFF0080307F02031D3E2AD3
:10047800013020020318412A422A1D2A0800572A5F
:10048800FF30F0070318F10AFF30F1070D30F300D1
:10049800FB30F200F20B4E2AF30B4E2A532A83123A
:1004A8000313280899007108803AFF0080307F0202
:1004B800031D602A013070020318632A642A442A43
:1004C800080083120313A100792A0C1E6C2A6D2AD6
:1004D800692A210884000A128A1122200A128A1124
:1004E80099000130A0002008A107210884000A1201
:1004F8008A1122200A128A11003A031D842A852AA9
:10050800692A0800F1009A2A831203130C1E8D2A07
:100518008E2A882A710884000A128A1122200A1257
:100528008A1199000130F0007008F1077108840001
:100538000A128A1122200A128A11003A031DA52ADA
:08054800A62A882A08000D34E0
:08400000FF3FFF3FFF3FFF3FC0
:04400E00D420FF3F7C
:00000001FF
