:060000000A128A1110280B
:10000800FE00030EF7000408F8000A08F9007F084C
:10001800FA000A128A110A290A128A1113280A12E6
:100028008A118C220A128A11AA00A801A901FB01CF
:10003800FC01FD0183010A128A11BA2800308A00E6
:100048000408840A820700342D342D342D342D34CD
:100058002D342D342D342D342D342D342D342D3490
:100068002D342D342D342D344D34613469346E34AF
:1000780020344D3465346E3475342D342D342D349C
:100088002D342D342D342D342D342D342D342D3460
:100098002D342D342D342D342D342D342D342D3450
:1000A80000346134293420344C3465346334743476
:1000B8007534723461342034643465346C342034DB
:1000C80070346F34743465346E34633469346F3427
:1000D8006D346534743472346F342E3400344934DA
:1000E8006E34673472346534733465342034633461
:1000F8006134723461346334743465347234203456
:1001080065346E34203441345334433449344934EB
:100118003A3420340034563461346C346F347234D9
:100128002034643465346C34203470346F3474345F
:1001380065346E34633469346F346D3465347434C3
:1001480072346F343A342034003462342934203421
:1001580045346E3476346934613472342034413431
:1001680053344334493449342E3400340A128A1142
:1001780057210A128A110A128A11F5210A128A11C4
:10018800831203139F18C928CA28CB289F146130EB
:100198002806031DD028D128F328A80168300A12A0
:1001A8008A11A1210A128A11A33083120313A7000E
:1001B8005430A600A60BDE28A70BDE280000831209
:1001C800031329089900A33083120313A70054309E
:1001D800A600A60BED28A70BED280000BF2862306B
:1001E8002806031DF828F928C4280130FB00003030
:1001F800FC004C300A128A11A1210A128A118312BA
:100208000313A801C4280A128A11102883120313A1
:100218000C1F0F2910291E291F0CF600760C0F3908
:10022800003A031D182919291D291E08F600760809
:10023800A9000C138C1E212922294C297B087C0437
:10024800031D272928292E291A08F6007608A80050
:100258009A014C297B037C04031D332934294C293A
:10026800FB01FC011A08F6007608FD007D089900DC
:100278009A010130F0000030F1000A128A116A2256
:100288000A128A110A128A1145220A128A114C2965
:100298007A08FF0079088A0078088400770E8300BE
:1002A800FE0E7E0E090001308316031788008901AF
:1002B8000130831603138500860183120313850119
:1002C80086018B170B170C13831603130C170F08D3
:1002D8008F3940388F000F14831203131F083F39DA
:1002E80040389F00831603131F129F12C3308312D6
:1002F80003139F05831603139F13831203131F14FD
:10030800023083120313A000A00B88290000831673
:10031800031318121815831603178715831603136A
:100328009A0119309900831203139817831603133F
:100338009816831203131816080083120313A500D6
:10034800B5290C1EA829A929A529250884000A125F
:100358008A1122200A128A1199000130A400240867
:10036800A507250884000A128A1122200A128A1178
:10037800003A031DC029C129A5290130A000003079
:10038800A1000A128A111E220A128A110800F50019
:10039800DF29831203130C1ED229D329CD2975080E
:1003A80084000A128A1122200A128A119900013047
:1003B800F4007408F507750884000A128A112220CF
:1003C8000A128A11003A031DEA29EB29CD290130C6
:1003D800F0000030F1000A128A116A220A128A110A
:1003E8000800023083120313A0000030A1000A1293
:1003F8008A111E220A128A1101300A128A11A121B9
:100408000A128A112E300A128A11A1210A128A119F
:1004180082300A128A11A1210A128A11023083122B
:100428000313A0000030A1000A128A111E220A122A
:100438008A110800352AFF3083120313A007031816
:10044800A10AFF30A1070D3083120313A300FB306C
:10045800A200A20B2D2AA30B2D2A831203132A080C
:100468009900831203132108803AFF0080307F022D
:10047800031D402A013020020318432A442A1F2A58
:1004880008000230F0000030F1000A128A116A22D6
:100498000A128A1101300A128A11CB210A128A1112
:1004A8002E300A128A11CB210A128A1182300A12BE
:1004B8008A11CB210A128A110230F0000030F100B3
:1004C8000A128A116A220A128A1108007E2AFF304B
:1004D800F0070318F10AFF30F1070D30F300FB3085
:1004E800F200F20B752AF30B752A7A2A831203138A
:1004F8002A0899007108803AFF0080307F02031DA6
:10050800872A0130700203188A2A8B2A6B2A08006E
:020518000D34A0
:08400000FF3FFF3FFF3FFF3FC0
:04400E00D420FF3F7C
:00000001FF
